{
  "_format": "hh-sol-artifact-1",
  "contractName": "DataContract",
  "sourceName": "contracts/DataContract.sol",
  "abi": [
    {
      "anonymous": false,
      "inputs": [
        {
          "indexed": true,
          "internalType": "address",
          "name": "previousOwner",
          "type": "address"
        },
        {
          "indexed": true,
          "internalType": "address",
          "name": "newOwner",
          "type": "address"
        }
      ],
      "name": "OwnershipTransferred",
      "type": "event"
    },
    {
      "inputs": [
        {
          "internalType": "string",
          "name": "_address",
          "type": "string"
        },
        {
          "internalType": "uint256",
          "name": "_date",
          "type": "uint256"
        },
        {
          "internalType": "string",
          "name": "_data",
          "type": "string"
        }
      ],
      "name": "AddData",
      "outputs": [
        {
          "internalType": "bool",
          "name": "success",
          "type": "bool"
        }
      ],
      "stateMutability": "nonpayable",
      "type": "function"
    },
    {
      "inputs": [
        {
          "internalType": "string",
          "name": "_address",
          "type": "string"
        }
      ],
      "name": "GetData",
      "outputs": [
        {
          "components": [
            {
              "internalType": "uint256",
              "name": "date",
              "type": "uint256"
            },
            {
              "internalType": "string",
              "name": "data",
              "type": "string"
            }
          ],
          "internalType": "struct DataContract.DataStruct[]",
          "name": "dataStructsUser",
          "type": "tuple[]"
        }
      ],
      "stateMutability": "view",
      "type": "function"
    },
    {
      "inputs": [],
      "name": "arrayLength",
      "outputs": [
        {
          "internalType": "uint256",
          "name": "",
          "type": "uint256"
        }
      ],
      "stateMutability": "view",
      "type": "function"
    },
    {
      "inputs": [
        {
          "internalType": "string",
          "name": "",
          "type": "string"
        },
        {
          "internalType": "uint256",
          "name": "",
          "type": "uint256"
        }
      ],
      "name": "dataStructs",
      "outputs": [
        {
          "internalType": "uint256",
          "name": "date",
          "type": "uint256"
        },
        {
          "internalType": "string",
          "name": "data",
          "type": "string"
        }
      ],
      "stateMutability": "view",
      "type": "function"
    },
    {
      "inputs": [],
      "name": "owner",
      "outputs": [
        {
          "internalType": "address",
          "name": "",
          "type": "address"
        }
      ],
      "stateMutability": "view",
      "type": "function"
    },
    {
      "inputs": [],
      "name": "renounceOwnership",
      "outputs": [],
      "stateMutability": "nonpayable",
      "type": "function"
    },
    {
      "inputs": [
        {
          "internalType": "address",
          "name": "newOwner",
          "type": "address"
        }
      ],
      "name": "transferOwnership",
      "outputs": [],
      "stateMutability": "nonpayable",
      "type": "function"
    },
    {
      "inputs": [
        {
          "internalType": "uint256",
          "name": "",
          "type": "uint256"
        }
      ],
      "name": "userList",
      "outputs": [
        {
          "internalType": "string",
          "name": "",
          "type": "string"
        }
      ],
      "stateMutability": "view",
      "type": "function"
    }
  ],
  "bytecode": "0x608060405234801561001057600080fd5b5061002161001c610026565b61002a565b61007a565b3390565b600080546001600160a01b038381166001600160a01b0319831681178455604051919092169283917f8be0079c531659141344cd1fd0a4f28419497f9722a3daafe3b4186f6b6457e09190a35050565b610c5a806100896000396000f3fe608060405234801561001057600080fd5b50600436106100885760003560e01c80638da5cb5b1161005b5780638da5cb5b146101015780639f4216e814610116578063e554482e14610136578063f2fde38b1461014b57610088565b80633f5f6dae1461008d5780634be562e8146100b7578063715018a6146100d7578063802fb068146100e1575b600080fd5b6100a061009b36600461092f565b61015e565b6040516100ae929190610b63565b60405180910390f35b6100ca6100c5366004610972565b610236565b6040516100ae9190610ac1565b6100df6103f1565b005b6100f46100ef3660046108f4565b610445565b6040516100ae9190610a50565b61010961055e565b6040516100ae9190610a3c565b6101296101243660046109dc565b61056d565b6040516100ae9190610acc565b61013e610619565b6040516100ae9190610b5a565b6100df6101593660046108c6565b61061f565b8151602081840181018051600182529282019185019190912091905280548290811061018957600080fd5b9060005260206000209060020201600091509150508060000154908060010180546101b390610bac565b80601f01602080910402602001604051908101604052809291908181526020018280546101df90610bac565b801561022c5780601f106102015761010080835404028352916020019161022c565b820191906000526020600020905b81548152906001019060200180831161020f57829003601f168201915b5050505050905082565b6000806103146002805480602002602001604051908101604052809291908181526020016000905b8282101561030a57838290600052602060002001805461027d90610bac565b80601f01602080910402602001604051908101604052809291908181526020018280546102a990610bac565b80156102f65780601f106102cb576101008083540402835291602001916102f6565b820191906000526020600020905b8154815290600101906020018083116102d957829003601f168201915b50505050508152602001906001019061025e565b5050505086610690565b9050600081121561037957600280546001810182556000919091528551610362917f405787fa12a823e0f2b7631cc41b3ba8828b3321ca811111fa75cd3aa3bb5ace01906020880190610792565b506003805490600061037383610be7565b91905055505b610381610816565b6020810184905284815260405160019061039c908890610a20565b908152604051602091819003820190208054600180820183556000928352918390208451600290920201908155838301518051859492936103e293908501920190610792565b50600198975050505050505050565b6103f961073e565b6001600160a01b031661040a61055e565b6001600160a01b0316146104395760405162461bcd60e51b815260040161043090610b25565b60405180910390fd5b6104436000610742565b565b60606001826040516104579190610a20565b9081526020016040518091039020805480602002602001604051908101604052809291908181526020016000905b828210156105535783829060005260206000209060020201604051806040016040529081600082015481526020016001820180546104c290610bac565b80601f01602080910402602001604051908101604052809291908181526020018280546104ee90610bac565b801561053b5780601f106105105761010080835404028352916020019161053b565b820191906000526020600020905b81548152906001019060200180831161051e57829003601f168201915b50505050508152505081526020019060010190610485565b505050509050919050565b6000546001600160a01b031690565b6002818154811061057d57600080fd5b90600052602060002001600091509050805461059890610bac565b80601f01602080910402602001604051908101604052809291908181526020018280546105c490610bac565b80156106115780601f106105e657610100808354040283529160200191610611565b820191906000526020600020905b8154815290600101906020018083116105f457829003601f168201915b505050505081565b60035481565b61062761073e565b6001600160a01b031661063861055e565b6001600160a01b03161461065e5760405162461bcd60e51b815260040161043090610b25565b6001600160a01b0381166106845760405162461bcd60e51b815260040161043090610adf565b61068d81610742565b50565b6000805b835181101561073157826040516020016106ae9190610a20565b604051602081830303815290604052805190602001208482815181106106e457634e487b7160e01b600052603260045260246000fd5b60200260200101516040516020016106fc9190610a20565b60405160208183030381529060405280519060200120141561071f579050610738565b8061072981610be7565b915050610694565b5060001990505b92915050565b3390565b600080546001600160a01b038381166001600160a01b0319831681178455604051919092169283917f8be0079c531659141344cd1fd0a4f28419497f9722a3daafe3b4186f6b6457e09190a35050565b82805461079e90610bac565b90600052602060002090601f0160209004810192826107c05760008555610806565b82601f106107d957805160ff1916838001178555610806565b82800160010185558215610806579182015b828111156108065782518255916020019190600101906107eb565b50610812929150610830565b5090565b604051806040016040528060008152602001606081525090565b5b808211156108125760008155600101610831565b600082601f830112610855578081fd5b813567ffffffffffffffff8082111561087057610870610c0e565b604051601f8301601f19168101602001828111828210171561089457610894610c0e565b6040528281528483016020018610156108ab578384fd5b82602086016020830137918201602001929092529392505050565b6000602082840312156108d7578081fd5b81356001600160a01b03811681146108ed578182fd5b9392505050565b600060208284031215610905578081fd5b813567ffffffffffffffff81111561091b578182fd5b61092784828501610845565b949350505050565b60008060408385031215610941578081fd5b823567ffffffffffffffff811115610957578182fd5b61096385828601610845565b95602094909401359450505050565b600080600060608486031215610986578081fd5b833567ffffffffffffffff8082111561099d578283fd5b6109a987838801610845565b94506020860135935060408601359150808211156109c5578283fd5b506109d286828701610845565b9150509250925092565b6000602082840312156109ed578081fd5b5035919050565b60008151808452610a0c816020860160208601610b7c565b601f01601f19169290920160200192915050565b60008251610a32818460208701610b7c565b9190910192915050565b6001600160a01b0391909116815260200190565b60208082528251828201819052600091906040908185019080840286018301878501865b83811015610ab357888303603f19018552815180518452870151878401879052610aa0878501826109f4565b9588019593505090860190600101610a74565b509098975050505050505050565b901515815260200190565b6000602082526108ed60208301846109f4565b60208082526026908201527f4f776e61626c653a206e6577206f776e657220697320746865207a65726f206160408201526564647265737360d01b606082015260800190565b6020808252818101527f4f776e61626c653a2063616c6c6572206973206e6f7420746865206f776e6572604082015260600190565b90815260200190565b60008382526040602083015261092760408301846109f4565b60005b83811015610b97578181015183820152602001610b7f565b83811115610ba6576000848401525b50505050565b600281046001821680610bc057607f821691505b60208210811415610be157634e487b7160e01b600052602260045260246000fd5b50919050565b6000600019821415610c0757634e487b7160e01b81526011600452602481fd5b5060010190565b634e487b7160e01b600052604160045260246000fdfea26469706673582212201c5a08de46c5a00739fd163cba8d40340c13d801d37cb68bbda3488355a17aa064736f6c63430008000033",
  "linkReferences": {},
  "deployedLinkReferences": {}
}