{
  "_format": "hh-sol-artifact-1",
  "contractName": "DataContract",
  "sourceName": "contracts/DataContract.sol",
  "abi": [
    {
      "anonymous": false,
      "inputs": [
        {
          "indexed": true,
          "internalType": "address",
          "name": "previousOwner",
          "type": "address"
        },
        {
          "indexed": true,
          "internalType": "address",
          "name": "newOwner",
          "type": "address"
        }
      ],
      "name": "OwnershipTransferred",
      "type": "event"
    },
    {
      "inputs": [
        {
          "internalType": "string",
          "name": "_address",
          "type": "string"
        },
        {
          "internalType": "uint256",
          "name": "_date",
          "type": "uint256"
        },
        {
          "internalType": "string",
          "name": "_data",
          "type": "string"
        },
        {
          "internalType": "string",
          "name": "_url",
          "type": "string"
        }
      ],
      "name": "AddData",
      "outputs": [
        {
          "internalType": "bool",
          "name": "success",
          "type": "bool"
        }
      ],
      "stateMutability": "nonpayable",
      "type": "function"
    },
    {
      "inputs": [
        {
          "internalType": "string",
          "name": "_address",
          "type": "string"
        }
      ],
      "name": "GetData",
      "outputs": [
        {
          "components": [
            {
              "internalType": "uint256",
              "name": "date",
              "type": "uint256"
            },
            {
              "internalType": "string",
              "name": "data",
              "type": "string"
            },
            {
              "internalType": "string",
              "name": "url",
              "type": "string"
            }
          ],
          "internalType": "struct DataContract.DataStruct[]",
          "name": "dataStructsUser",
          "type": "tuple[]"
        }
      ],
      "stateMutability": "view",
      "type": "function"
    },
    {
      "inputs": [],
      "name": "arrayLength",
      "outputs": [
        {
          "internalType": "uint256",
          "name": "",
          "type": "uint256"
        }
      ],
      "stateMutability": "view",
      "type": "function"
    },
    {
      "inputs": [
        {
          "internalType": "string",
          "name": "",
          "type": "string"
        },
        {
          "internalType": "uint256",
          "name": "",
          "type": "uint256"
        }
      ],
      "name": "dataStructs",
      "outputs": [
        {
          "internalType": "uint256",
          "name": "date",
          "type": "uint256"
        },
        {
          "internalType": "string",
          "name": "data",
          "type": "string"
        },
        {
          "internalType": "string",
          "name": "url",
          "type": "string"
        }
      ],
      "stateMutability": "view",
      "type": "function"
    },
    {
      "inputs": [],
      "name": "owner",
      "outputs": [
        {
          "internalType": "address",
          "name": "",
          "type": "address"
        }
      ],
      "stateMutability": "view",
      "type": "function"
    },
    {
      "inputs": [],
      "name": "renounceOwnership",
      "outputs": [],
      "stateMutability": "nonpayable",
      "type": "function"
    },
    {
      "inputs": [
        {
          "internalType": "address",
          "name": "newOwner",
          "type": "address"
        }
      ],
      "name": "transferOwnership",
      "outputs": [],
      "stateMutability": "nonpayable",
      "type": "function"
    },
    {
      "inputs": [
        {
          "internalType": "uint256",
          "name": "",
          "type": "uint256"
        }
      ],
      "name": "userList",
      "outputs": [
        {
          "internalType": "string",
          "name": "",
          "type": "string"
        }
      ],
      "stateMutability": "view",
      "type": "function"
    }
  ],
  "bytecode": "0x608060405234801561001057600080fd5b5061002161001c610026565b61002a565b61007a565b3390565b600080546001600160a01b038381166001600160a01b0319831681178455604051919092169283917f8be0079c531659141344cd1fd0a4f28419497f9722a3daafe3b4186f6b6457e09190a35050565b610e08806100896000396000f3fe608060405234801561001057600080fd5b50600436106100885760003560e01c80638da5cb5b1161005b5780638da5cb5b146101025780639f4216e814610117578063e554482e14610137578063f2fde38b1461014c57610088565b80633f5f6dae1461008d578063484f0f85146100b8578063715018a6146100d8578063802fb068146100e2575b600080fd5b6100a061009b366004610a80565b61015f565b6040516100af93929190610cf5565b60405180910390f35b6100cb6100c6366004610ac3565b6102c5565b6040516100af9190610c53565b6100e06104a3565b005b6100f56100f0366004610a45565b6104f7565b6040516100af9190610bc5565b61010a6106a2565b6040516100af9190610bb1565b61012a610125366004610b51565b6106b1565b6040516100af9190610c5e565b61013f61075d565b6040516100af9190610cec565b6100e061015a366004610a17565b610763565b8151602081840181018051600182529282019185019190912091905280548290811061018a57600080fd5b9060005260206000209060030201600091509150508060000154908060010180546101b490610d5a565b80601f01602080910402602001604051908101604052809291908181526020018280546101e090610d5a565b801561022d5780601f106102025761010080835404028352916020019161022d565b820191906000526020600020905b81548152906001019060200180831161021057829003601f168201915b50505050509080600201805461024290610d5a565b80601f016020809104026020016040519081016040528092919081815260200182805461026e90610d5a565b80156102bb5780601f10610290576101008083540402835291602001916102bb565b820191906000526020600020905b81548152906001019060200180831161029e57829003601f168201915b5050505050905083565b6000806103a36002805480602002602001604051908101604052809291908181526020016000905b8282101561039957838290600052602060002001805461030c90610d5a565b80601f016020809104026020016040519081016040528092919081815260200182805461033890610d5a565b80156103855780601f1061035a57610100808354040283529160200191610385565b820191906000526020600020905b81548152906001019060200180831161036857829003601f168201915b5050505050815260200190600101906102ed565b50505050876107d4565b90506000811215610408576002805460018101825560009190915286516103f1917f405787fa12a823e0f2b7631cc41b3ba8828b3321ca811111fa75cd3aa3bb5ace019060208901906108d6565b506003805490600061040283610d95565b91905055505b61041061095a565b60208101859052858152604080820185905251600190610431908990610b95565b90815260405160209181900382019020805460018082018355600092835291839020845160039092020190815583830151805185949293610477939085019201906108d6565b50604082015180516104939160028401916020909101906108d6565b5060019998505050505050505050565b6104ab610882565b6001600160a01b03166104bc6106a2565b6001600160a01b0316146104eb5760405162461bcd60e51b81526004016104e290610cb7565b60405180910390fd5b6104f56000610886565b565b60606001826040516105099190610b95565b9081526020016040518091039020805480602002602001604051908101604052809291908181526020016000905b8282101561069757838290600052602060002090600302016040518060600160405290816000820154815260200160018201805461057490610d5a565b80601f01602080910402602001604051908101604052809291908181526020018280546105a090610d5a565b80156105ed5780601f106105c2576101008083540402835291602001916105ed565b820191906000526020600020905b8154815290600101906020018083116105d057829003601f168201915b5050505050815260200160028201805461060690610d5a565b80601f016020809104026020016040519081016040528092919081815260200182805461063290610d5a565b801561067f5780601f106106545761010080835404028352916020019161067f565b820191906000526020600020905b81548152906001019060200180831161066257829003601f168201915b50505050508152505081526020019060010190610537565b505050509050919050565b6000546001600160a01b031690565b600281815481106106c157600080fd5b9060005260206000200160009150905080546106dc90610d5a565b80601f016020809104026020016040519081016040528092919081815260200182805461070890610d5a565b80156107555780601f1061072a57610100808354040283529160200191610755565b820191906000526020600020905b81548152906001019060200180831161073857829003601f168201915b505050505081565b60035481565b61076b610882565b6001600160a01b031661077c6106a2565b6001600160a01b0316146107a25760405162461bcd60e51b81526004016104e290610cb7565b6001600160a01b0381166107c85760405162461bcd60e51b81526004016104e290610c71565b6107d181610886565b50565b6000805b835181101561087557826040516020016107f29190610b95565b6040516020818303038152906040528051906020012084828151811061082857634e487b7160e01b600052603260045260246000fd5b60200260200101516040516020016108409190610b95565b60405160208183030381529060405280519060200120141561086357905061087c565b8061086d81610d95565b9150506107d8565b5060001990505b92915050565b3390565b600080546001600160a01b038381166001600160a01b0319831681178455604051919092169283917f8be0079c531659141344cd1fd0a4f28419497f9722a3daafe3b4186f6b6457e09190a35050565b8280546108e290610d5a565b90600052602060002090601f016020900481019282610904576000855561094a565b82601f1061091d57805160ff191683800117855561094a565b8280016001018555821561094a579182015b8281111561094a57825182559160200191906001019061092f565b5061095692915061097b565b5090565b60405180606001604052806000815260200160608152602001606081525090565b5b80821115610956576000815560010161097c565b600082601f8301126109a0578081fd5b813567ffffffffffffffff808211156109bb576109bb610dbc565b604051601f8301601f19908116603f011681019082821181831017156109e3576109e3610dbc565b816040528381528660208588010111156109fb578485fd5b8360208701602083013792830160200193909352509392505050565b600060208284031215610a28578081fd5b81356001600160a01b0381168114610a3e578182fd5b9392505050565b600060208284031215610a56578081fd5b813567ffffffffffffffff811115610a6c578182fd5b610a7884828501610990565b949350505050565b60008060408385031215610a92578081fd5b823567ffffffffffffffff811115610aa8578182fd5b610ab485828601610990565b95602094909401359450505050565b60008060008060808587031215610ad8578182fd5b843567ffffffffffffffff80821115610aef578384fd5b610afb88838901610990565b9550602087013594506040870135915080821115610b17578384fd5b610b2388838901610990565b93506060870135915080821115610b38578283fd5b50610b4587828801610990565b91505092959194509250565b600060208284031215610b62578081fd5b5035919050565b60008151808452610b81816020860160208601610d2a565b601f01601f19169290920160200192915050565b60008251610ba7818460208701610d2a565b9190910192915050565b6001600160a01b0391909116815260200190565b60208082528251828201819052600091906040908185019080840286018301878501865b83811015610c4557603f19898403018552815160608151855288820151818a870152610c1782870182610b69565b91505087820151915084810388860152610c318183610b69565b968901969450505090860190600101610be9565b509098975050505050505050565b901515815260200190565b600060208252610a3e6020830184610b69565b60208082526026908201527f4f776e61626c653a206e6577206f776e657220697320746865207a65726f206160408201526564647265737360d01b606082015260800190565b6020808252818101527f4f776e61626c653a2063616c6c6572206973206e6f7420746865206f776e6572604082015260600190565b90815260200190565b600084825260606020830152610d0e6060830185610b69565b8281036040840152610d208185610b69565b9695505050505050565b60005b83811015610d45578181015183820152602001610d2d565b83811115610d54576000848401525b50505050565b600281046001821680610d6e57607f821691505b60208210811415610d8f57634e487b7160e01b600052602260045260246000fd5b50919050565b6000600019821415610db557634e487b7160e01b81526011600452602481fd5b5060010190565b634e487b7160e01b600052604160045260246000fdfea2646970667358221220dee0c01fc5179ba1bdca041c5ada621faf608be87972e1ce5107db7567db37fe64736f6c63430008010033",
  "linkReferences": {},
  "deployedLinkReferences": {}
}